:100000000C942A000C9439070C9447000C94470078
:100010000C9447000C9447000C9447000C94470044
:100020000C9447000C9447000C9447000C94B907BB
:100030000C9447000C9447000C9447000C94470024
:100040000C9447000C9447000C9447000C94470014
:100050000C94470011241FBECFE5D8E0DEBFCDBF12
:1000600011E0A0E6B0E0E6E0FCE102C005900D92F0
:10007000A037B107D9F711E0A0E7B1E001C01D92A8
:10008000A83AB107E1F70E94A5080C94010E0C9460
:100090000000A0E0B0E0EFE4F0E00C94CA0DDC0159
:1000A0002B01FA019C91923008F439C1EB0188814F
:1000B000823008F433C1943069F4843009F02FC1E0
:1000C00011969C9111978981981709F428C1A0E68F
:1000D000B0E025C1843009F421C18230A9F4923006
:1000E00009F01DC19A01AD0188E0EA010990AE0155
:1000F000E90109929E018150C1F7E20189811196BF
:100100009C918923818308C1923009F407C112961A
:100110002D903C901397EB018A819B811496AD90B2
:10012000BD90CD90DC901797EC80FD800E811F81F3
:100130009101281B390BB90137FF04C066277727C7
:10014000621B730B603271050CF061C0121613064E
:100150006CF537014801062E04C096948794779475
:1001600067940A94D2F721E030E040E050E004C008
:10017000220F331F441F551F6A95D2F7215030407C
:10018000404050402E213F2140235123211531056D
:100190004105510521F021E030E040E050E07901D7
:1001A0008A01E628F728082919293CC0232BD1F118
:1001B000260E371E35014601062E04C096948794FC
:1001C000779467940A94D2F721E030E040E050E061
:1001D00004C0220F331F441F551F6A95D2F72150C8
:1001E0003040404050402A213B214C215D212115C7
:1001F00031054105510521F021E030E040E050E0BB
:1002000059016A01A628B728C828D9280BC0821529
:1002100093052CF01C01AA24BB24650103C0EE2425
:10022000FF24870111969C91D20111968C91981709
:1002300009F445C0992339F0A80197012A193B090F
:100240004C095D0906C0A60195012E193F09400B16
:10025000510B57FD08C011823382228224833583DB
:10026000468357831DC081E08183338222828827A1
:100270009927DC01821B930BA40BB50B8483958318
:10028000A683B7830DC0220F331F441F551F24833D
:100290003583468357838281938101979383828339
:1002A0002481358146815781DA01C9010197A1096D
:1002B000B1098F5F9F4FAF4FBF4328F30BC09183AE
:1002C00033822282EA0CFB1C0C1D1D1DE482F58288
:1002D0000683178383E0808324813581468157819B
:1002E00057FF1AC0C901AA2797FDA095BA2F8170A0
:1002F0009070A070B0705695479537952795822BD2
:10030000932BA42BB52B84839583A683B7838281FB
:100310009381019693838283DF0101C0D201CD01D5
:10032000CDB7DEB7E2E10C94E60DA0E2B0E0EBE978
:10033000F1E00C94D60D69837A838B839C832D83A3
:100340003E834F835887E9E0EE2EF12CEC0EFD1E24
:10035000CE010196B7010E94C6058E010F5E1F4FA8
:10036000CE010596B8010E94C6058A8991E08927C9
:100370008A8BC701B801AE01475E5F4F0E944900FA
:100380000E94F104A096E6E00C94F20DA0E2B0E029
:10039000ECECF1E00C94D60D69837A838B839C831B
:1003A0002D833E834F835887F9E0EF2EF12CEC0E1E
:1003B000FD1ECE010196B7010E94C6058E010F5E9B
:1003C0001F4FCE010596B8010E94C605C701B801AE
:1003D000AE01475E5F4F0E9449000E94F104A09663
:1003E000E6E00C94F20DA0E2B0E0E9EFF1E00C944D
:1003F000CA0D69837A838B839C832D833E834F83CD
:100400005887CE010196BE01675F7F4F0E94C605E7
:10041000CE010596BE016F5E7F4F0E94C60599858D
:10042000923088F089898230C8F0943019F4823093
:1004300051F404C0843029F4923081F480E690E0D5
:10044000C6C0923049F420E09A858A89981321E049
:100450002A87CE010996BBC0823049F420E09A85F4
:100460008A89981321E02A8BCE014196B0C02D8451
:100470003E844F8458886D887E888F88988CEE24BF
:10048000FF248701AA24BB24650140E050E060E01E
:1004900070E0E0E0F0E0C10181709070892BE9F03C
:1004A000E60CF71C081D191D9A01AB012A0D3B1D16
:1004B0004C1D5D1D80E090E0A0E0B0E0E614F70484
:1004C0000805190520F481E090E0A0E0B0E0BA0151
:1004D000A901480F591F6A1F7B1FAA0CBB1CCC1C0B
:1004E000DD1C97FE08C081E090E0A0E0B0E0A82A03
:1004F000B92ACA2ADB2A3196E032F10549F0660CA6
:10050000771C881C991C5694479437942794C3CF22
:10051000FA85EA892B893C898B859C85280F391FB0
:100520002E5F3F4F17C0CA0181709070892B61F018
:1005300016950795F794E79480E090E0A0E0B0E886
:10054000E82AF92A0A2B1B2B76956795579547952C
:100550002F5F3F4F77FDE7CF0CC0440F551F661F3D
:10056000771F17FD4160EE0CFF1C001F111F21506B
:100570003040403090E0590790E0690790E47907F7
:1005800060F32B8F3C8FDB01CA018F779070A070D6
:10059000B07080349105A105B10561F447FD0AC032
:1005A000E114F1040105110529F0405C5F4F6F4F24
:1005B0007F4F40781A8EFE1711F081E08A8F4D8FA1
:1005C0005E8F6F8F78A383E0898FCE0149960E945A
:1005D000F104A096E2E10C94E60DA8E1B0E0E3EFAF
:1005E000F2E00C94D20D69837A838B839C832D83F4
:1005F0003E834F835887B9E0EB2EF12CEC0EFD1EA5
:10060000CE010196B7010E94C6058E010F5E1F4FF5
:10061000CE010596B8010E94C6052985223008F44E
:100620007EC03989323010F4B8017CC08A859A893D
:1006300089278A87243011F0223031F4231709F0FA
:100640006EC060E670E06EC0343039F41D861E86E0
:100650001F86188A1C861B8604C0323021F484E071
:100660008987B7015FC02B853C858B899C89281BB6
:10067000390B3C872B87ED84FE840F851889AD8864
:10068000BE88CF88D88CEA14FB040C051D0540F405
:10069000EE0CFF1C001F111F215030403C872B87A0
:1006A00020E030E040E050E080E090E0A0E0B0E406
:1006B00060E070E0EA14FB040C051D0540F0282BF7
:1006C000392B4A2B5B2BEA18FB080C091D09B69540
:1006D000A79597958795EE0CFF1C001F111F6F5F64
:1006E0007F4F6F31710531F7DA01C9018F77907053
:1006F000A070B07080349105A105B10561F427FDAB
:100700000AC0E114F1040105110529F0205C3F4FF6
:100710004F4F5F4F20782D873E874F87588BBE0104
:10072000675F7F4FCB010E94F1046896EAE00C946A
:10073000EE0DA8E1B0E0EFE9F3E00C94D60D69838B
:100740007A838B839C832D833E834F83588789E0F4
:10075000E82EF12CEC0EFD1ECE010196B7010E9491
:10076000C6058E010F5E1F4FCE010596B8010E948F
:10077000C6058985823040F08989823028F0C7011A
:10078000B8010E943E0601C08FEF6896E6E00C9427
:10079000F20DA8E1B0E0EFECF3E00C94D60D698324
:1007A0007A838B839C832D833E834F83588789E094
:1007B000E82EF12CEC0EFD1ECE010196B7010E9431
:1007C000C6058E010F5E1F4FCE010596B8010E942F
:1007D000C6058985823040F08989823028F0C701BA
:1007E000B8010E943E0601C08FEF6896E6E00C94C7
:1007F000F20DA8E1B0E0EFEFF3E00C94D60D6983C1
:100800007A838B839C832D833E834F83588789E033
:10081000E82EF12CEC0EFD1ECE010196B7010E94D0
:10082000C6058E010F5E1F4FCE010596B8010E94CE
:10083000C6058985823040F08989823028F0C70159
:10084000B8010E943E0601C081E06896E6E00C9483
:10085000F20DA8E0B0E0EFE2F4E00C94D20D7B01E1
:100860008C01611571058105910519F482E0898378
:1008700060C083E089838EE1C82ED12CDC82CB82DC
:10088000ED82FE820F831887C801B7010E94A2047F
:10089000FC013197F7FF3BC0222733272E1B3F0B6C
:1008A00057016801022E04C0D694C794B794A79448
:1008B0000A94D2F740E050E060E070E081E090E020
:1008C000A0E0B0E004C0880F991FAA1FBB1F2A95A3
:1008D000D2F70197A109B1098E219F21A023B1234D
:1008E0000097A105B10521F041E050E060E070E023
:1008F0004A295B296C297D294D835E836F83788724
:100900008EE190E08E1B9F0B9C838B8312C03097EF
:1009100081F00E2E04C0EE0CFF1C001F111F0A9464
:10092000D2F7ED82FE820F831887CE1ADF0ADC82AF
:10093000CB821A82CE0101960E94F1042896EAE049
:100940000C94EE0DEF92FF920F931F937B018C019D
:1009500080E0E81680E0F80681E0080780E01807EC
:1009600088F48FEFE816F1040105110531F028F045
:1009700088E090E0A0E0B0E017C080E090E0A0E068
:10098000B0E012C080E0E81680E0F80680E00807DA
:1009900081E0180728F088E190E0A0E0B0E004C012
:1009A00080E190E0A0E0B0E020E230E040E050E004
:1009B000281B390B4A0B5B0B04C016950795F7945F
:1009C000E7948A95D2F7F701E859FF4F8081281BF9
:1009D000310941095109C9011F910F91FF90EF9011
:1009E0000895DF92EF92FF920F931F93FC01E48032
:1009F000F58006811781D1808081823048F480E0C3
:100A000090E0A0E1B0E0E82AF92A0A2B1B2BA5C050
:100A1000843009F49FC0823021F4EE24FF24870142
:100A200005C0E114F1040105110519F4E0E0F0E05E
:100A300096C0628173819FEF623879070CF05BC0CA
:100A400022E83FEF261B370B2A3131052CF020E03E
:100A500030E040E050E02AC0B801A701022E04C0F7
:100A600076956795579547950A94D2F781E090E07F
:100A7000A0E0B0E004C0880F991FAA1FBB1F2A95F1
:100A8000D2F70197A109B1098E219F21A023B1239B
:100A90000097A105B10521F081E090E0A0E0B0E071
:100AA0009A01AB01282B392B4A2B5B2BDA01C901A8
:100AB0008F779070A070B07080349105A105B1055A
:100AC00039F427FF09C0205C3F4F4F4F5F4F04C0F0
:100AD000215C3F4F4F4F5F4FE0E0F0E02030A0E05F
:100AE0003A07A0E04A07A0E45A0710F0E1E0F0E07E
:100AF00079018A0127C06038710564F5FB01E1586E
:100B0000FF4FD801C7018F779070A070B07080340C
:100B10009105A105B10539F4E7FE0DC080E490E030
:100B2000A0E0B0E004C08FE390E0A0E0B0E0E80E09
:100B3000F91E0A1F1B1F17FF05C016950795F7948E
:100B4000E794319687E016950795F794E7948A9590
:100B5000D1F705C0EE24FF248701EFEFF0E06E2F00
:100B6000679566276795902F9F77D794DD24D79454
:100B70008E2F8695492F462B582F5D29B701CA0124
:100B80001F910F91FF90EF90DF900895FC01DB0122
:100B9000408151812281622F6F7770E0221F2227CE
:100BA000221F9381892F880F822B282F30E0991FD5
:100BB0009927991F11969C93119721153105A9F535
:100BC000411551056105710511F482E037C082E8D5
:100BD0009FEF13969C938E9312979A01AB0167E057
:100BE000220F331F441F551F6A95D1F783E08C9362
:100BF0000DC0220F331F441F551F12968D919C91DB
:100C00001397019713969C938E931297203080E050
:100C1000380780E0480780E4580758F314962D936E
:100C20003D934D935C93179708952F3F310579F4C9
:100C3000411551056105710519F484E08C930895FF
:100C400064FF03C081E08C9312C01C9210C02F5728
:100C5000304013963C932E93129783E08C9387E059
:100C6000440F551F661F771F8A95D1F7706414963D
:100C70004D935D936D937C93179708951F93DC01BB
:100C8000FB019C91923008F447C08081823008F4C7
:100C900043C0943051F411961C91843099F58181B0
:100CA000682F70E0611B71093FC0843021F09230E1
:100CB00031F48230B9F18181882389F12DC01196F8
:100CC0001C9111978230F1F081811817D9F4129696
:100CD0002D913C911397828193818217930794F011
:100CE00028173907BCF014968D919D910D90BC91F9
:100CF000A02D2481358146815781281739074A075D
:100D00005B0718F4112341F00AC082179307A40768
:100D1000B50740F4112319F061E070E005C06FEFF2
:100D20007FEF02C060E070E0CB011F910895DF9378
:100D3000CF93CDB7DEB7A5E5B0E0E5E5F0E0808183
:100D40008E7F8C93A5E5B0E0E5E5F0E080818260E0
:100D50008C93ABE5B0E0EBE5F0E0808180648C93B0
:100D6000CF91DF910895DF93CF9300D00F92CDB74D
:100D7000DEB789838981282F30E03B832A838A81EB
:100D80009B818230910529F12A813B8123303105F5
:100D900034F48A819B818130910561F046C02A81BB
:100DA0003B812330310521F18A819B81843091057B
:100DB00071F13BC0A5E5B0E0E5E5F0E080818E7F14
:100DC0008C93A5E5B0E0E5E5F0E080818D7F8C9324
:100DD0002CC0A5E5B0E0E5E5F0E0808181608C9372
:100DE000A5E5B0E0E5E5F0E080818D7F8C931DC046
:100DF000A5E5B0E0E5E5F0E080818E7F8C93A5E588
:100E0000B0E0E5E5F0E0808182608C930EC0A5E55E
:100E1000B0E0E5E5F0E0808181608C93A5E5B0E08D
:100E2000E5E5F0E0808182608C9380E00F900F9088
:100E30000F90CF91DF910895DF93CF9300D00F9261
:100E4000CDB7DEB79B838A8319828A819B81009705
:100E500039F08A819B81909371018093700102C067
:100E600081E0898389810F900F900F90CF91DF915E
:100E700008951F920F920FB60F9211242F933F9354
:100E80004F935F936F937F938F939F93AF93BF9392
:100E9000EF93FF93DF93CF93CDB7DEB780917001CF
:100EA00090917101009729F0E0917001F09171012A
:100EB0000995CF91DF91FF91EF91BF91AF919F91F4
:100EC0008F917F916F915F914F913F912F910F90F3
:100ED0000FBE0F901F901895DF93CF93CDB7DEB75D
:100EE000AFE5B0E0EFE5F0E0808180688C93CF91D2
:100EF000DF910895DF93CF93CDB7DEB7AFE5B0E0D4
:100F0000EFE5F0E080818F778C93CF91DF910895AA
:100F1000DF93CF93CDB7DEB7A3E5B0E0E3E5F0E034
:100F200080818F7B8C93A3E5B0E0E3E5F0E08081E6
:100F300088608C93A9E5B0E0E9E5F0E0808181600C
:100F40008C93A3E5B0E0E3E5F0E080818B7F8C93A8
:100F5000A3E5B0E0E3E5F0E0808182608C93A3E557
:100F6000B0E0E3E5F0E0808181608C93CF91DF9188
:100F700008951F920F920FB60F9211248F939F9393
:100F8000AF93BF93DF93CF9300D000D00F92CDB734
:100F9000DEB78091760190917701A0917801B091B0
:100FA00079018A839B83AC83BD8380917A01898395
:100FB0008A819B81AC81BD810296A11DB11D8A836E
:100FC0009B83AC83BD8389818A5F898389818D37C7
:100FD00070F089818D5789838A819B81AC81BD8125
:100FE0000196A11DB11D8A839B83AC83BD8389813A
:100FF00080937A018A819B81AC81BD818093760147
:1010000090937701A0937801B09379018091720158
:1010100090917301A0917401B09175010196A11D89
:10102000B11D8093720190937301A0937401B093EA
:1010300075010F900F900F900F900F90CF91DF914F
:10104000BF91AF919F918F910F900FBE0F901F9006
:101050001895DF93CF9300D000D0CDB7DEB70E94B4
:101060007A078091760190917701A0917801B091F3
:10107000790189839A83AB83BC830E946C07898141
:101080009A81AB81BC81BC01CD010F900F900F9074
:101090000F90CF91DF910895DF93CF9300D000D0D0
:1010A0000F92CDB7DEB70E947A07809172019091BE
:1010B0007301A0917401B09175018A839B83AC8305
:1010C000BD83E2E5F0E080818983E8E5F0E080819E
:1010D000882F90E081709070882371F089818F3F14
:1010E00059F08A819B81AC81BD810196A11DB11D02
:1010F0008A839B83AC83BD830E946C078A819B811A
:10110000AC81BD812227382F492F5A2F8981882F02
:1011100090E0A0E0B0E0820F931FA41FB51F880FDE
:10112000991FAA1FBB1F880F991FAA1FBB1F880FDB
:10113000991FAA1FBB1FBC01CD010F900F900F90EC
:101140000F900F90CF91DF910895EF92FF920F9340
:101150001F93DF93CF93CDB7DEB729970FB6F894DF
:10116000DEBF0FBECDBF0E946C070E9497068AE3C8
:101170009DE00E941C070E948807E7E3F0E0E08002
:10118000E7E3F0E08FEF8083AAE3B0E0EAE3F0E08A
:10119000808187608C93E1E3F0E0F080E1E3F0E0B0
:1011A0001082E8E3F0E00081E8E3F0E01082EBE396
:1011B000F0E01081EBE3F0E01082ABE3B0E0EBE3B2
:1011C000F0E0808184608C930E942908DC01CB01CF
:1011D00080937B0190937C01A0937D01B0937E016D
:1011E00020917B0130917C0140917D0150917E01E5
:1011F00080917F0190918001A0918101B091820145
:1012000079018A01E81AF90A0A0B1B0BD801C701F8
:10121000883E03E0900700E0A00700E0B00708F474
:101220009EC080917F0190918001A0918101B09139
:10123000820188519C4FAF4FBF4F80937F019093A5
:101240008001A0938101B0938201809183019091EC
:101250008401A0918501B0918601BC01CD0120E0FF
:1012600030E040E85FE30E94C601DC01CB018093DF
:10127000830190938401A0938501B09386018091AE
:10128000830190918401A0918501B0918601BC01F8
:10129000CD0120E030E04CE652E40E94990318169C
:1012A00034F580E090E0A0E0B0E08093830190937B
:1012B0008401A0938501B09386018091680190918B
:1012C0006901A0916A01B0916B01BC01CD0120E0E0
:1012D00030E040E85FE30E94C601DC01CB0180936F
:1012E000680190936901A0936A01B0936B018091AA
:1012F000680190916901A0916A01B0916B01BC01F4
:10130000CD0120E030E04CE652E40E94990318162B
:1013100034F580E090E0A0E0B0E080936801909325
:101320006901A0936A01B0936B0180916C01909167
:101330006D01A0916E01B0916F01BC01CD0120E063
:1013400030E040E85FE30E94C601DC01CB018093FE
:101350006C0190936D01A0936E01B0936F010E9498
:101360004C08DC01CB0180939C0190939D01A093DC
:101370009E01B0939F0120919C0130919D0140916D
:101380009E0150919F018091A4019091A501A0918F
:10139000A601B091A70179018A01E81AF90A0A0B9E
:1013A0001B0BD801C7018093980190939901A093DA
:1013B0009A01B0939B018091980190919901A0911D
:1013C0009A01B0919B01BC01CD010E9429047B01CF
:1013D0008C018091900190919101A0919201B09126
:1013E00093012091870130918801409189015091AA
:1013F0008A01BC01CD010E94F301DC01CB019C01FB
:10140000AD01C801B7010E94C90388230CF43DC097
:101410008091980190919901A0919A01B0919B01BE
:10142000BC01CD010E9429047B018C0180918701C0
:1014300090918801A0918901B0918A01BC01CD01F0
:1014400020E030E040E450E40E94C601DC01CB0122
:10145000209190013091910140919201509193011E
:10146000BC01CD010E94F301DC01CB019C01AD0167
:10147000C801B7010E94F90388233CF4ABE3B0E054
:10148000EBE3F0E0808183608C93809198019091F0
:101490009901A0919A01B0919B01BC01CD010E94DC
:1014A00029047B018C018091870190918801A09192
:1014B0008901B0918A01BC01CD0120E030E040E417
:1014C00050E40E94C601DC01CB01209190013091D3
:1014D00091014091920150919301BC01CD010E9474
:1014E000F301DC01CB019C01AD01C801B7010E94F1
:1014F000C90388230CF43FC0ABE3B0E0EBE3F0E0BA
:10150000808184708C938091870190918801A09153
:101510008901B0918A01BC01CD0120E030E044EBAB
:1015200052E40E94C601DC01CB01809387019093B5
:101530008801A0938901B0938A01809187019091DD
:101540008801A0918901B0918A01BC01CD0120E000
:1015500030E044EB53E40E94C903882364F080E048
:1015600090E0A0E0B0E08093870190938801A09381
:101570008901B0938A018091980190919901A0917D
:101580009A01B0919B01BC01CD010E9429047B010D
:101590008C018091830190918401A0918501B0918B
:1015A0008601BC01CD0120E030E040EC50E40E9417
:1015B000F301DC01CB012091900130919101409128
:1015C000920150919301BC01CD010E94F301DC0115
:1015D000CB019C01AD01C801B7010E94C90388235A
:1015E0000CF44EC08091980190919901A0919A01BC
:1015F000B0919B01BC01CD010E9429047B018C01AB
:101600008091830190918401A0918501B091860120
:10161000BC01CD0120E030E040EC50E40E94F30139
:10162000DC01CB01BC01CD0120E030E040E050E422
:101630000E94C601DC01CB01209190013091910103
:101640004091920150919301BC01CD010E94F301A0
:10165000DC01CB019C01AD01C801B7010E94F90377
:10166000882374F4E8E3F0E0F080E8E3F0E08FEF43
:101670008083ABE3B0E0EBE3F0E0808184608C93A7
:101680008091980190919901A0919A01B0919B014C
:10169000BC01CD010E9429047B018C018091830152
:1016A00090918401A0918501B0918601BC01CD018A
:1016B00020E030E040EC50E40E94F301DC01CB017B
:1016C000BC01CD0120E030E040E050E40E94C601C2
:1016D000DC01CB0120919001309191014091920168
:1016E00050919301BC01CD010E94F301DC01CB01BB
:1016F0009C01AD01C801B7010E94C90388236CF0A9
:10170000E8E3F0E00081E8E3F0E01082ABE3B0E072
:10171000EBE3F0E080818C7F8C9380919801909135
:101720009901A0919A01B0919B01BC01CD010E9449
:1017300029047B018C018091680190916901A0913D
:101740006A01B0916B01BC01CD0120E030E040ECBA
:1017500050E40E94F301DC01CB0120919001309113
:1017600091014091920150919301BC01CD010E94E1
:10177000F301DC01CB019C01AD01C801B7010E945E
:10178000C90388230CF44EC080919801909199016F
:10179000A0919A01B0919B01BC01CD010E94290446
:1017A0007B018C018091680190916901A0916A018F
:1017B000B0916B01BC01CD0120E030E040EC50E481
:1017C0000E94F301DC01CB01BC01CD0120E030E03F
:1017D00040E85FE30E94C601DC01CB01209190014B
:1017E000309191014091920150919301BC01CD0142
:1017F0000E94F301DC01CB019C01AD01C801B701DE
:101800000E94F903882374F4A8E3B0E0E8E3F0E071
:1018100080818F6E8C93ABE3B0E0EBE3F0E08081EE
:1018200084608C938091980190919901A0919A0184
:10183000B0919B01BC01CD010E9429047B018C0168
:101840008091680190916901A0916A01B0916B014A
:10185000BC01CD0120E030E040EC50E40E94F301F7
:10186000DC01CB01BC01CD0120E030E040E85FE3CA
:101870000E94C601DC01CB012091900130919101C1
:101880004091920150919301BC01CD010E94F3015E
:10189000DC01CB019C01AD01C801B7010E94C90365
:1018A00088236CF0E8E3F0E01081E8E3F0E01082D8
:1018B000ABE3B0E0EBE3F0E080818C7F8C93809130
:1018C000980190919901A0919A01B0919B01BC015E
:1018D000CD010E9429047B018C0180916C019091C3
:1018E0006D01A0916E01B0916F01BC01CD0120E0AE
:1018F00030E040EF51E40E94F301DC01CB01209184
:101900009001309191014091920150919301BC015D
:10191000CD010E94F301DC01CB019C01AD01C801A6
:10192000B7010E94C90388230CF44EC0809198012E
:1019300090919901A0919A01B0919B01BC01CD01B8
:101940000E9429047B018C0180916C0190916D01B2
:10195000A0916E01B0916F01BC01CD0120E030E09B
:1019600040EF51E40E94F301DC01CB01BC01CD0149
:1019700020E030E040E85FE30E94C601DC01CB01DB
:1019800020919001309191014091920150919301E9
:10199000BC01CD010E94F301DC01CB019C01AD0132
:1019A000C801B7010E94F903882374F4E8E3F0E06A
:1019B0002081E8E3F0E08FEF8083ABE3B0E0EBE37E
:1019C000F0E0808184608C938091980190919901DE
:1019D000A0919A01B0919B01BC01CD010E94290404
:1019E0007B018C0180916C0190916D01A0916E0141
:1019F000B0916F01BC01CD0120E030E040EF51E437
:101A00000E94F301DC01CB01BC01CD0120E030E0FC
:101A100040E85FE30E94C601DC01CB012091900108
:101A2000309191014091920150919301BC01CD01FF
:101A30000E94F301DC01CB019C01AD01C801B7019B
:101A40000E94C90388230CF4BFCBE8E3F0E0808157
:101A5000E8E3F0E01082A8E3B0E0E8E3F0E08081A2
:101A6000806F8C93ABE3B0E0EBE3F0E080818C7FA0
:101A70008C93AACBEF92FF920F931F93DF93CF9398
:101A8000CDB7DEB70E944C08DC01CB0180939401F6
:101A900090939501A0939601B0939701E0E3F0E055
:101AA0008081882F90E0847090700097C9F08091B9
:101AB0008B01882309F067C081E080938B018091BE
:101AC000940190919501A0919601B0919701809316
:101AD000A0019093A101A093A201B093A30153C0D0
:101AE00080918B01813009F04EC010928B012091C2
:101AF0009401309195014091960150919701809108
:101B0000A0019091A101A091A201B091A30179013E
:101B10008A01E81AF90A0A0B1B0BD801C701BC019C
:101B2000CD010E942904DC01CB0180938C019093AC
:101B30008D01A0938E01B0938F0180918C019091C3
:101B40008D01A0918E01B0918F01BC01CD0120E0EB
:101B500030E044EB53E40E94ED02DC01CB018093C2
:101B6000900190939101A0939201B09393010E94F0
:101B70004C08DC01CB018093A4019093A501A093B4
:101B8000A601B093A701CF91DF911F910F91FF9014
:101B9000EF9008952F923F924F925F926F927F92B3
:101BA0008F929F92AF92BF92CF92DF92EF92FF926D
:101BB0000F931F93CF93DF93CDB7DEB7CA1BDB0B19
:101BC0000FB6F894DEBF0FBECDBF09942A883988BE
:101BD00048885F846E847D848C849B84AA84B984C5
:101BE000C884DF80EE80FD800C811B81AA81B981D1
:101BF000CE0FD11D0FB6F894DEBF0FBECDBFED01E5
:061C00000895F894FFCFE7
:101C060000000000000000000001020203030303BD
:101C16000404040404040404050505050505050576
:101C26000505050505050505060606060606060656
:101C3600060606060606060606060606060606063E
:101C46000606060606060606070707070707070726
:101C5600070707070707070707070707070707070E
:101C660007070707070707070707070707070707FE
:101C760007070707070707070707070707070707EE
:101C860007070707070707070808080808080808D6
:101C960008080808080808080808080808080808BE
:101CA60008080808080808080808080808080808AE
:101CB600080808080808080808080808080808089E
:101CC600080808080808080808080808080808088E
:101CD600080808080808080808080808080808087E
:101CE600080808080808080808080808080808086E
:101CF600080808080808080808080808080808085E
:101D060008080808080808080000344200000040D7
:00000001FF
