:100000000C942A000C9434060C943C000C943C0094
:100010000C943C000C943C000C943C000C943C0070
:100020000C943C000C9478070C943C000C948807CA
:100030000C943C000C943C000C943C000C943C0050
:100040000C943C000C943C000C943C000C943C0040
:100050000C943C0011241FBECFE5D8E0DEBFCDBF1D
:1000600010E0A0E6B0E001C01D92A137B107E1F7B2
:100070000E94CA070C9400080C940000DF93CF93F1
:10008000CDB7DEB72E970FB6F894DEBF0FBECDBF4B
:100090008A836B834C8381E089838A81843008F072
:1000A0006AC18B81883008F066C18A81282F30E0D0
:1000B0003E872D878D859E858130910509F468C026
:1000C0002D853E85223031052CF48D859E85009747
:1000D00071F052C12D853E852230310509F4A9C049
:1000E0008D859E858330910509F4F4C045C18C81CE
:1000F000282F30E03C872B878B859C8581309105AC
:1001000089F12B853C852230310529F08B859C8532
:10011000009799F03BC0ABE3B0E0EBE3F0E0808107
:10012000482F8B81282F30E081E090E002C0880FBB
:10013000991F2A95E2F7842B8C93AAE3B0E0EAE3B7
:10014000F0E08081482F8B81282F30E081E090E023
:10015000022E02C0880F991F0A94E2F7809584232B
:100160008C930AC1AAE3B0E0EAE3F0E08081482F73
:100170008B81282F30E081E090E0022E02C0880FB2
:10018000991F0A94E2F7842B8C93F6C01982F4C06D
:100190008C81282F30E03A87298789859A8581309C
:1001A000910589F129853A852230310529F0898523
:1001B0009A85009799F03BC0A8E3B0E0E8E3F0E04F
:1001C0008081482F8B81282F30E081E090E002C0B1
:1001D000880F991F2A95E2F7842B8C93A7E3B0E050
:1001E000E7E3F0E08081482F8B81282F30E081E029
:1001F00090E0022E02C0880F991F0A94E2F78095C2
:1002000084238C93B9C0A7E3B0E0E7E3F0E08081FA
:10021000482F8B81282F30E081E090E0022E02C031
:10022000880F991F0A94E2F7842B8C93A5C019823A
:10023000A3C08C81282F30E038872F838F81988549
:100240008130910589F12F8138852230310529F0DF
:100250008F819885009799F03BC0A5E3B0E0E5E376
:10026000F0E08081482F8B81282F30E081E090E002
:1002700002C0880F991F2A95E2F7842B8C93A4E380
:10028000B0E0E4E3F0E08081482F8B81282F30E05C
:1002900081E090E0022E02C0880F991F0A94E2F7D5
:1002A000809584238C9368C0A4E3B0E0E4E3F0E09D
:1002B0008081482F8B81282F30E081E090E0022E52
:1002C00002C0880F991F0A94E2F7842B8C9354C0C4
:1002D000198252C08C81282F30E03E832D838D817E
:1002E0009E818130910589F12D813E812230310539
:1002F00029F08D819E81009799F03BC0A2E3B0E088
:10030000E2E3F0E08081482F8B81282F30E081E00C
:1003100090E002C0880F991F2A95E2F7842B8C93F6
:10032000A1E3B0E0E1E3F0E08081482F8B81282F4A
:1003300030E081E090E0022E02C0880F991F0A94FD
:10034000E2F7809584238C9317C0A1E3B0E0E1E34A
:10035000F0E08081482F8B81282F30E081E090E011
:10036000022E02C0880F991F0A94E2F7842B8C9307
:1003700003C0198201C0198289812E960FB6F894A4
:10038000DEBF0FBECDBFCF91DF910895DF93CF9336
:10039000CDB7DEB72E970FB6F894DEBF0FBECDBF38
:1003A0008A836B834C8381E089838B81883008F05A
:1003B0000AC18C81813021F08C81882309F003C12E
:1003C0008A81282F30E03E872D878D859E8581305C
:1003D000910509F44FC02D853E85223031052CF45E
:1003E0008D859E85009771F0ECC02D853E8522306D
:1003F000310509F477C08D859E858330910509F418
:10040000A9C0DFC08C81282F30E03C872B878B85EB
:100410009C850097D1F02B853C852130310509F072
:10042000D3C0ABE3B0E0EBE3F0E08081482F8B81F9
:10043000282F30E081E090E0022E02C0880F991F43
:100440000A94E2F7842B8C93BFC0ABE3B0E0EBE3FC
:10045000F0E08081482F8B81282F30E081E090E010
:10046000022E02C0880F991F0A94E2F78095842318
:100470008C93AAC08C81282F30E03A872987898500
:100480009A850097D1F029853A852130310509F008
:100490009BC0A8E3B0E0E8E3F0E08081482F8B81C7
:1004A000282F30E081E090E0022E02C0880F991FD3
:1004B0000A94E2F7842B8C9387C0A8E3B0E0E8E3CA
:1004C000F0E08081482F8B81282F30E081E090E0A0
:1004D000022E02C0880F991F0A94E2F780958423A8
:1004E0008C9372C08C81282F30E038872F838F81C6
:1004F00098850097D1F02F8138852130310509F09A
:1005000063C0A5E3B0E0E5E3F0E08081482F8B8194
:10051000282F30E081E090E0022E02C0880F991F62
:100520000A94E2F7842B8C934FC0A5E3B0E0E5E397
:10053000F0E08081482F8B81282F30E081E090E02F
:10054000022E02C0880F991F0A94E2F78095842337
:100550008C933AC08C81282F30E03E832D838D818F
:100560009E810097C9F02D813E812130310561F5D2
:10057000A2E3B0E0E2E3F0E08081482F8B81282FF6
:1005800030E081E090E0022E02C0880F991F0A94AB
:10059000E2F7842B8C9318C0A2E3B0E0E2E3F0E032
:1005A0008081482F8B81282F30E081E090E0022E5F
:1005B00002C0880F991F0A94E2F7809584238C93D8
:1005C00003C0198201C0198289812E960FB6F89452
:1005D000DEBF0FBECDBFCF91DF910895DF93CF93E4
:1005E000CDB7DEB727970FB6F894DEBF0FBECDBFED
:1005F0008A836B835D834C8319828B81883008F0FA
:1006000079C08C819D81009709F474C081E0898351
:100610008A81282F30E03F832E834E815F814130D5
:10062000510559F18E819F818230910534F42E81DC
:100630003F812115310569F05CC04E815F814230F8
:10064000510579F18E819F818330910509F43DC078
:1006500050C0E9E3F0E08081282F30E08B81882FC3
:1006600090E0A90102C0559547958A95E2F7CA0125
:100670008170EC81FD8180833DC0E6E3F0E0808104
:10068000282F30E08B81882F90E0A90102C055957A
:1006900047958A95E2F7CA018170EC81FD818083DC
:1006A00029C0E3E3F0E08081282F30E08B81882FA0
:1006B00090E0A90102C0559547958A95E2F7CA01D5
:1006C0008170EC81FD81808315C0E0E3F0E08081E2
:1006D000282F30E08B81882F90E0A90102C055952A
:1006E00047958A95E2F7CA018170EC81FD8180838C
:1006F00001C01982898127960FB6F894DEBF0FBE1C
:10070000CDBFCF91DF910895DF93CF9300D000D07C
:100710000F92CDB7DEB78A836B8381E089838B81AB
:10072000883008F06FC08A81282F30E03D832C8309
:100730008C819D818130910549F12C813D81223050
:1007400031052CF48C819D81009761F05CC02C8177
:100750003D812230310571F18C819D81833091057D
:10076000E9F151C0ABE3B0E0EBE3F0E08081482F6A
:100770008B81282F30E081E090E0022E02C0880FAC
:10078000991F0A94E2F784278C933DC0A8E3B0E058
:10079000E8E3F0E08081482F8B81282F30E081E072
:1007A00090E0022E02C0880F991F0A94E2F7842776
:1007B0008C9329C0A5E3B0E0E5E3F0E08081482F09
:1007C0008B81282F30E081E090E0022E02C0880F5C
:1007D000991F0A94E2F784278C9315C0A2E3B0E036
:1007E000E2E3F0E08081482F8B81282F30E081E028
:1007F00090E0022E02C0880F991F0A94E2F7842726
:100800008C9301C0198289810F900F900F900F90E7
:100810000F90CF91DF910895DF93CF93CDB7DEB7DF
:100820002D970FB6F894DEBF0FBECDBF8A836B83C2
:1008300081E089838A81282F30E03D872C878C8551
:100840009D8581309105D1F12C853D852230310582
:100850002CF48C859D85009771F099C02C853D8581
:100860002230310509F44DC08C859D85833091057A
:1008700009F46AC08CC08B81282F30E03B872A871F
:100880008A859B858130910591F02A853B852230B0
:10089000310529F08A859B85009729F00DC0EBE38F
:1008A000F0E08FEF8083EAE3F0E0108271C0EAE3CA
:1008B000F0E08FEF80836CC019826AC08B81282F93
:1008C00030E039872887888599858130910591F0B6
:1008D000288539852230310529F08885998500974A
:1008E00029F00DC0E8E3F0E08FEF8083E7E3F0E06C
:1008F00010824EC0E7E3F0E08FEF808349C0198299
:1009000047C08B81282F30E03F832E838E819F81CB
:100910008130910591F02E813F812230310529F0FF
:100920008E819F81009729F00DC0E5E3F0E08FEF05
:100930008083E4E3F0E010822BC0E4E3F0E08FEF8B
:10094000808326C0198224C08B81282F30E03D830C
:100950002C838C819D818130910591F02C813D818A
:100960002230310529F08C819D81009729F00DC03E
:10097000E2E3F0E08FEF8083E1E3F0E0108208C073
:10098000E1E3F0E08FEF808303C0198201C0198298
:1009900089812D960FB6F894DEBF0FBECDBFCF91E3
:1009A000DF910895DF93CF9300D000D00F92CDB7A1
:1009B000DEB78A836B8381E089838A81282F30E0C8
:1009C0003D832C838C819D8181309105D1F02C81D8
:1009D0003D81223031052CF48C819D81009761F09E
:1009E0001FC02C813D812230310581F08C819D8199
:1009F0008330910581F014C0EBE3F0E08B818083BC
:100A000010C0E8E3F0E08B8180830BC0E5E3F0E009
:100A10008B81808306C0E2E3F0E08B81808301C09C
:100A2000198289810F900F900F900F900F90CF91A6
:100A3000DF910895DF93CF9300D000D000D0CDB7E1
:100A4000DEB78A837C836B8381E089838B819C8181
:100A50000097E1F18A81282F30E03E832D838D813C
:100A60009E8181309105E1F02D813E81223031055A
:100A70002CF48D819E81009761F027C02D813E81ED
:100A800022303105A1F08D819E8183309105B1F036
:100A90001CC0E9E3F0E08081EB81FC81808316C01B
:100AA000E6E3F0E08081EB81FC8180830FC0E3E32B
:100AB000F0E08081EB81FC81808308C0E0E3F0E01E
:100AC0008081EB81FC81808301C019828981269617
:100AD0000FB6F894DEBF0FBECDBFCF91DF91089562
:100AE000DF93CF93CDB7DEB7EAE3F0E087E0808312
:100AF000E7E3F0E08FEF8083E4E3F0E01082E1E3EE
:100B0000F0E01082EBE3F0E01082E8E3F0E0108226
:100B1000E5E3F0E01082E2E3F0E084E08083CF914F
:100B2000DF910895DF93CF93CDB7DEB7A5E5B0E0B1
:100B3000E5E5F0E080818E7F8C93A5E5B0E0E5E50A
:100B4000F0E0808182608C93ABE5B0E0EBE5F0E013
:100B5000808180648C93CF91DF910895DF93CF9350
:100B600000D00F92CDB7DEB789838981282F30E07E
:100B70003B832A838A819B818230910529F12A81D6
:100B80003B812330310534F48A819B81813091058A
:100B900061F046C02A813B812330310521F18A81F1
:100BA0009B818430910571F13BC0A5E5B0E0E5E59E
:100BB000F0E080818E7F8C93A5E5B0E0E5E5F0E084
:100BC00080818D7F8C932CC0A5E5B0E0E5E5F0E059
:100BD000808181608C93A5E5B0E0E5E5F0E080815F
:100BE0008D7F8C931DC0A5E5B0E0E5E5F0E0808148
:100BF0008E7F8C93A5E5B0E0E5E5F0E08081826032
:100C00008C930EC0A5E5B0E0E5E5F0E08081816061
:100C10008C93A5E5B0E0E5E5F0E0808182608C93FF
:100C200080E00F900F900F90CF91DF910895DF93A8
:100C3000CF9300D00F92CDB7DEB79B838A83198202
:100C40008A819B81009739F08A819B819093610012
:100C50008093600002C081E0898389810F900F90AA
:100C60000F90CF91DF9108951F920F920FB60F92C0
:100C700011242F933F934F935F936F937F938F93A1
:100C80009F93AF93BF93EF93FF93DF93CF93CDB732
:100C9000DEB78091600090916100009729F0E091AB
:100CA0006000F09161000995CF91DF91FF91EF9184
:100CB000BF91AF919F918F917F916F915F914F9174
:100CC0003F912F910F900FBE0F901F901895DF93BB
:100CD000CF93CDB7DEB7AFE5B0E0EFE5F0E08081D0
:100CE00080688C93CF91DF910895DF93CF93CDB738
:100CF000DEB7AFE5B0E0EFE5F0E080818F778C9371
:100D0000CF91DF910895DF93CF93CDB7DEB7A3E501
:100D1000B0E0E3E5F0E080818F7D8C93A3E5B0E067
:100D2000E3E5F0E080818F7E8C93A3E5B0E0E3E51E
:100D3000F0E080818F7B8C93A3E5B0E0E3E5F0E009
:100D4000808188608C93ECE5F0E08AEF8083A3E5F6
:100D5000B0E0E3E5F0E0808182608C93A3E5B0E051
:100D6000E3E5F0E080818E7F8C93A3E5B0E0E3E5DE
:100D7000F0E080818B7F8C93A9E5B0E0E9E5F0E0BD
:100D800080819181826011969C938E93CF91DF91A7
:100D90000895DF93CF9300D0CDB7DEB79A838983D0
:100DA00089819A8190936300809362000F900F90E5
:100DB000CF91DF910895DF93CF93CDB7DEB7AEE447
:100DC000B0E0EEE4F0E080818F7B8C93AEE4B0E0A5
:100DD000EEE4F0E080818F778C93AFE4B0E0EFE455
:100DE000F0E080818D7F8C93AFE4B0E0EFE4F0E041
:100DF00080818E7F8C93AEE4B0E0EEE4F0E0808101
:100E0000877F8C93AEE4B0E0EEE4F0E080818F7EEB
:100E10008C93A9E5B0E0E9E5F0E080819181846000
:100E200011969C938E93CF91DF910895DF93CF938A
:100E300000D0CDB7DEB79A83898389819A81909358
:100E40006500809364000F900F90CF91DF9108951B
:100E5000DF93CF93CDB7DEB7AEE4B0E0EEE4F0E0E1
:100E6000808182608C93AEE4B0E0EEE4F0E08081BB
:100E70008E7F8C93AEE4B0E0EEE4F0E080818B7F77
:100E80008C93CF91DF910895DF93CF93CDB7DEB7E9
:100E9000AEE4B0E0EEE4F0E080818D7F8C93AEE4D0
:100EA000B0E0EEE4F0E080818E7F8C93AEE4B0E0C1
:100EB000EEE4F0E080818B7F8C93ECE4F0E0118233
:100EC0001082CF91DF910895DF93CF9300D0CDB7FB
:100ED000DEB79A838983ECE4F0E080819181E98137
:100EE000FA81918380830F900F90CF91DF910895C5
:100EF0001F920F920FB60F921124DF93CF93CDB7AD
:100F0000DEB7CF91DF910F900FBE0F901F90189515
:100F10001F920F920FB60F9211242F933F934F936E
:100F20005F936F937F938F939F93AF93BF93EF9351
:100F3000FF93DF93CF93CDB7DEB78091660090919A
:100F40006700019690936700809366008091660029
:100F5000909167002FE0803A920749F41092670061
:100F600010926600E0916400F09165000995CF91C0
:100F7000DF91FF91EF91BF91AF919F918F917F9101
:100F80006F915F914F913F912F910F900FBE0F90F6
:100F90001F901895DF93CF930F92CDB7DEB71982CC
:100FA0000E9470050E9467060E94920587EE97E0F6
:100FB0000E9417060E94DB060E94830682EF97E0DC
:100FC0000E94C90689EF97E00E941607FFCFDF93C2
:100FD000CF93CDB7DEB7E8E3F0E08FEF8083CF911A
:100FE000DF910895DF93CF93CDB7DEB7CF91DF9137
:100FF0000895DF93CF93CDB7DEB7CF91DF910895FA
:04100000F894FFCF92
:00000001FF
